{
  "_format": "hh-sol-artifact-1",
  "contractName": "Marketplace",
  "sourceName": "backend/contracts/Marketplace.sol",
  "abi": [
    {
      "inputs": [],
      "stateMutability": "nonpayable",
      "type": "constructor"
    },
    {
      "anonymous": false,
      "inputs": [
        {
          "indexed": false,
          "internalType": "uint256",
          "name": "itemId",
          "type": "uint256"
        },
        {
          "indexed": true,
          "internalType": "address",
          "name": "nft",
          "type": "address"
        },
        {
          "indexed": false,
          "internalType": "uint256",
          "name": "tokenId",
          "type": "uint256"
        },
        {
          "indexed": false,
          "internalType": "bool",
          "name": "sold",
          "type": "bool"
        },
        {
          "indexed": true,
          "internalType": "address",
          "name": "buyer",
          "type": "address"
        },
        {
          "indexed": false,
          "internalType": "uint256",
          "name": "warrantyPeriod",
          "type": "uint256"
        },
        {
          "indexed": false,
          "internalType": "uint256",
          "name": "warrantyStartPeriod",
          "type": "uint256"
        },
        {
          "indexed": false,
          "internalType": "bool",
          "name": "warrantyOver",
          "type": "bool"
        }
      ],
      "name": "Bought",
      "type": "event"
    },
    {
      "anonymous": false,
      "inputs": [
        {
          "indexed": false,
          "internalType": "uint256",
          "name": "itemId",
          "type": "uint256"
        },
        {
          "indexed": true,
          "internalType": "address",
          "name": "nft",
          "type": "address"
        },
        {
          "indexed": false,
          "internalType": "uint256",
          "name": "tokenId",
          "type": "uint256"
        },
        {
          "indexed": false,
          "internalType": "bool",
          "name": "sold",
          "type": "bool"
        },
        {
          "indexed": false,
          "internalType": "uint256",
          "name": "warrantyPeriod",
          "type": "uint256"
        },
        {
          "indexed": false,
          "internalType": "uint256",
          "name": "warrantyStartPeriod",
          "type": "uint256"
        },
        {
          "indexed": false,
          "internalType": "bool",
          "name": "warrantyOver",
          "type": "bool"
        }
      ],
      "name": "Offered",
      "type": "event"
    },
    {
      "inputs": [],
      "name": "destroyExpiredContracts",
      "outputs": [],
      "stateMutability": "nonpayable",
      "type": "function"
    },
    {
      "inputs": [
        {
          "internalType": "uint256",
          "name": "_itemId",
          "type": "uint256"
        }
      ],
      "name": "destroySelectedExpiredContract",
      "outputs": [],
      "stateMutability": "payable",
      "type": "function"
    },
    {
      "inputs": [],
      "name": "feeAccount",
      "outputs": [
        {
          "internalType": "address payable",
          "name": "",
          "type": "address"
        }
      ],
      "stateMutability": "view",
      "type": "function"
    },
    {
      "inputs": [],
      "name": "itemCount",
      "outputs": [
        {
          "internalType": "uint256",
          "name": "",
          "type": "uint256"
        }
      ],
      "stateMutability": "view",
      "type": "function"
    },
    {
      "inputs": [
        {
          "internalType": "uint256",
          "name": "",
          "type": "uint256"
        }
      ],
      "name": "items",
      "outputs": [
        {
          "internalType": "uint256",
          "name": "itemId",
          "type": "uint256"
        },
        {
          "internalType": "contract ERC721Burnable",
          "name": "nft",
          "type": "address"
        },
        {
          "internalType": "uint256",
          "name": "tokenId",
          "type": "uint256"
        },
        {
          "internalType": "bool",
          "name": "sold",
          "type": "bool"
        },
        {
          "internalType": "uint256",
          "name": "warrantyPeriod",
          "type": "uint256"
        },
        {
          "internalType": "uint256",
          "name": "warrantyStartPeriod",
          "type": "uint256"
        },
        {
          "internalType": "bool",
          "name": "warrantyOver",
          "type": "bool"
        }
      ],
      "stateMutability": "view",
      "type": "function"
    },
    {
      "inputs": [],
      "name": "lastUpdated",
      "outputs": [
        {
          "internalType": "uint256",
          "name": "",
          "type": "uint256"
        }
      ],
      "stateMutability": "view",
      "type": "function"
    },
    {
      "inputs": [
        {
          "internalType": "contract ERC721Burnable",
          "name": "_nft",
          "type": "address"
        },
        {
          "internalType": "uint256",
          "name": "_tokenId",
          "type": "uint256"
        },
        {
          "internalType": "uint256",
          "name": "warranty",
          "type": "uint256"
        }
      ],
      "name": "makeItem",
      "outputs": [],
      "stateMutability": "nonpayable",
      "type": "function"
    },
    {
      "inputs": [
        {
          "internalType": "uint256",
          "name": "_itemId",
          "type": "uint256"
        },
        {
          "internalType": "uint256",
          "name": "warrantyStart",
          "type": "uint256"
        }
      ],
      "name": "purchaseItem",
      "outputs": [],
      "stateMutability": "payable",
      "type": "function"
    },
    {
      "inputs": [],
      "name": "updateTimestamp",
      "outputs": [],
      "stateMutability": "nonpayable",
      "type": "function"
    }
  ],
  "bytecode": "0x60a060405234801561001057600080fd5b5060016000553360601b60805261002642600255565b60805160601c610960610043600039600060dd01526109606000f3fe6080604052600436106100865760003560e01c80636bfb0d01116100595780636bfb0d011461011c578063bfb231d214610140578063d0b06f5d146101e7578063e0675698146101fd578063fa00afc71461021057600080fd5b806307a216ad1461008b5780631c5be3d7146100a057806331c31790146100b657806365e17c9d146100cb575b600080fd5b61009e6100993660046108a8565b610230565b005b3480156100ac57600080fd5b5061009e42600255565b3480156100c257600080fd5b5061009e610352565b3480156100d757600080fd5b506100ff7f000000000000000000000000000000000000000000000000000000000000000081565b6040516001600160a01b0390911681526020015b60405180910390f35b34801561012857600080fd5b5061013260015481565b604051908152602001610113565b34801561014c57600080fd5b506101a861015b3660046108a8565b6003602081905260009182526040909120805460018201546002830154938301546004840154600585015460069095015493956001600160a01b0390931694929360ff9283169391921687565b604080519788526001600160a01b039096166020880152948601939093529015156060850152608084015260a0830152151560c082015260e001610113565b3480156101f357600080fd5b5061013260025481565b61009e61020b3660046108c0565b610457565b34801561021c57600080fd5b5061009e61022b366004610869565b610673565b61023942600255565b60015b600154811161034e576000818152600360205260409020600201548214801561028857506002546000828152600360205260409020600481015460059091015461028691906108e1565b115b80156102a6575060008181526003602052604090206006015460ff16155b1561033c576000818152600360205260409081902060018101546002909101549151630852cd8d60e31b815260048101929092526001600160a01b0316906342966c6890602401600060405180830381600087803b15801561030757600080fd5b505af115801561031b573d6000803e3d6000fd5b5050506000828152600360205260409020600601805460ff19166001179055505b80610346816108f9565b91505061023c565b5050565b61035b42600255565b60015b6001548111610454576002546000828152600360205260409020600481015460059091015461038d91906108e1565b1180156103ac575060008181526003602052604090206006015460ff16155b15610442576000818152600360205260409081902060018101546002909101549151630852cd8d60e31b815260048101929092526001600160a01b0316906342966c6890602401600060405180830381600087803b15801561040d57600080fd5b505af1158015610421573d6000803e3d6000fd5b5050506000828152600360205260409020600601805460ff19166001179055505b8061044c816108f9565b91505061035e565b50565b600260005414156104af5760405162461bcd60e51b815260206004820152601f60248201527f5265656e7472616e637947756172643a207265656e7472616e742063616c6c0060448201526064015b60405180910390fd5b60026000556104bd42600255565b600082815260036020526040902082158015906104dc57506001548311155b61051d5760405162461bcd60e51b81526020600482015260126024820152711a5d195b48191bd95cdb89dd08195e1a5cdd60721b60448201526064016104a6565b600381015460ff16156105665760405162461bcd60e51b81526020600482015260116024820152701a5d195b48185b1c9958591e481cdbdb19607a1b60448201526064016104a6565b60028054600583015560038201805460ff19166001908117909155820154908201546040516323b872dd60e01b815230600482015233602482015260448101919091526001600160a01b03909116906323b872dd90606401600060405180830381600087803b1580156105d857600080fd5b505af11580156105ec573d6000803e3d6000fd5b5050505060018181015481546002840154600485015460408051938452602084019290925290820193909352606081019290925260808201849052600060a083015233916001600160a01b03909116907fd7ace672a7d37d58543a72b27789dc9f0e48f02cbfec03815abf4462c59993499060c00160405180910390a35050600160005550565b600260005414156106c65760405162461bcd60e51b815260206004820152601f60248201527f5265656e7472616e637947756172643a207265656e7472616e742063616c6c0060448201526064016104a6565b6002600090815560018054916106db836108f9565b90915550506040516323b872dd60e01b8152336004820152306024820152604481018390526001600160a01b038416906323b872dd90606401600060405180830381600087803b15801561072e57600080fd5b505af1158015610742573d6000803e3d6000fd5b50506040805160e081018252600180548083526001600160a01b03808a1660208086018281528688018c815260006060890181815260808a018e815260a08b0183815260c08c018481529984526003968790528c84209b518c5594518b8b018054919099166001600160a01b031990911617909755915160028a01559051928801805493151560ff19948516179055935160048801555160058701559251600690950180549515159590931694909417909155905492519194507f0dee16eca5cda2ce58f0ef8c23b14d6430847c86e87d493ce711754d8d39bfa6935061085792918791908790829081909586526020860194909452911515604085015260608401526080830152151560a082015260c00190565b60405180910390a25050600160005550565b60008060006060848603121561087d578283fd5b83356001600160a01b0381168114610893578384fd5b95602085013595506040909401359392505050565b6000602082840312156108b9578081fd5b5035919050565b600080604083850312156108d2578182fd5b50508035926020909101359150565b600082198211156108f4576108f4610914565b500190565b600060001982141561090d5761090d610914565b5060010190565b634e487b7160e01b600052601160045260246000fdfea2646970667358221220092535a401a68f50648aa027c13677452da178ec9af7a644519b052c86cb443664736f6c63430008040033",
  "linkReferences": {},
  "deployedLinkReferences": {}
}