{
  "_format": "hh-sol-artifact-1",
  "contractName": "NFT",
  "sourceName": "backend/contracts/NFT.sol",
  "abi": [
    {
      "inputs": [],
      "stateMutability": "nonpayable",
      "type": "constructor"
    },
    {
      "anonymous": false,
      "inputs": [
        {
          "indexed": true,
          "internalType": "address",
          "name": "owner",
          "type": "address"
        },
        {
          "indexed": true,
          "internalType": "address",
          "name": "approved",
          "type": "address"
        },
        {
          "indexed": true,
          "internalType": "uint256",
          "name": "tokenId",
          "type": "uint256"
        }
      ],
      "name": "Approval",
      "type": "event"
    },
    {
      "anonymous": false,
      "inputs": [
        {
          "indexed": true,
          "internalType": "address",
          "name": "owner",
          "type": "address"
        },
        {
          "indexed": true,
          "internalType": "address",
          "name": "operator",
          "type": "address"
        },
        {
          "indexed": false,
          "internalType": "bool",
          "name": "approved",
          "type": "bool"
        }
      ],
      "name": "ApprovalForAll",
      "type": "event"
    },
    {
      "anonymous": false,
      "inputs": [
        {
          "indexed": true,
          "internalType": "address",
          "name": "from",
          "type": "address"
        },
        {
          "indexed": true,
          "internalType": "address",
          "name": "to",
          "type": "address"
        },
        {
          "indexed": true,
          "internalType": "uint256",
          "name": "tokenId",
          "type": "uint256"
        }
      ],
      "name": "Transfer",
      "type": "event"
    },
    {
      "inputs": [
        {
          "internalType": "address",
          "name": "to",
          "type": "address"
        },
        {
          "internalType": "uint256",
          "name": "tokenId",
          "type": "uint256"
        }
      ],
      "name": "approve",
      "outputs": [],
      "stateMutability": "nonpayable",
      "type": "function"
    },
    {
      "inputs": [
        {
          "internalType": "address",
          "name": "owner",
          "type": "address"
        }
      ],
      "name": "balanceOf",
      "outputs": [
        {
          "internalType": "uint256",
          "name": "",
          "type": "uint256"
        }
      ],
      "stateMutability": "view",
      "type": "function"
    },
    {
      "inputs": [
        {
          "internalType": "uint256",
          "name": "tokenId",
          "type": "uint256"
        }
      ],
      "name": "burn",
      "outputs": [],
      "stateMutability": "nonpayable",
      "type": "function"
    },
    {
      "inputs": [
        {
          "internalType": "uint256",
          "name": "tokenId",
          "type": "uint256"
        }
      ],
      "name": "getApproved",
      "outputs": [
        {
          "internalType": "address",
          "name": "",
          "type": "address"
        }
      ],
      "stateMutability": "view",
      "type": "function"
    },
    {
      "inputs": [
        {
          "internalType": "address",
          "name": "owner",
          "type": "address"
        },
        {
          "internalType": "address",
          "name": "operator",
          "type": "address"
        }
      ],
      "name": "isApprovedForAll",
      "outputs": [
        {
          "internalType": "bool",
          "name": "",
          "type": "bool"
        }
      ],
      "stateMutability": "view",
      "type": "function"
    },
    {
      "inputs": [],
      "name": "mint",
      "outputs": [
        {
          "internalType": "uint256",
          "name": "",
          "type": "uint256"
        }
      ],
      "stateMutability": "nonpayable",
      "type": "function"
    },
    {
      "inputs": [],
      "name": "name",
      "outputs": [
        {
          "internalType": "string",
          "name": "",
          "type": "string"
        }
      ],
      "stateMutability": "view",
      "type": "function"
    },
    {
      "inputs": [
        {
          "internalType": "uint256",
          "name": "tokenId",
          "type": "uint256"
        }
      ],
      "name": "ownerOf",
      "outputs": [
        {
          "internalType": "address",
          "name": "",
          "type": "address"
        }
      ],
      "stateMutability": "view",
      "type": "function"
    },
    {
      "inputs": [
        {
          "internalType": "address",
          "name": "from",
          "type": "address"
        },
        {
          "internalType": "address",
          "name": "to",
          "type": "address"
        },
        {
          "internalType": "uint256",
          "name": "tokenId",
          "type": "uint256"
        }
      ],
      "name": "safeTransferFrom",
      "outputs": [],
      "stateMutability": "nonpayable",
      "type": "function"
    },
    {
      "inputs": [
        {
          "internalType": "address",
          "name": "from",
          "type": "address"
        },
        {
          "internalType": "address",
          "name": "to",
          "type": "address"
        },
        {
          "internalType": "uint256",
          "name": "tokenId",
          "type": "uint256"
        },
        {
          "internalType": "bytes",
          "name": "data",
          "type": "bytes"
        }
      ],
      "name": "safeTransferFrom",
      "outputs": [],
      "stateMutability": "nonpayable",
      "type": "function"
    },
    {
      "inputs": [
        {
          "internalType": "address",
          "name": "operator",
          "type": "address"
        },
        {
          "internalType": "bool",
          "name": "approved",
          "type": "bool"
        }
      ],
      "name": "setApprovalForAll",
      "outputs": [],
      "stateMutability": "nonpayable",
      "type": "function"
    },
    {
      "inputs": [
        {
          "internalType": "bytes4",
          "name": "interfaceId",
          "type": "bytes4"
        }
      ],
      "name": "supportsInterface",
      "outputs": [
        {
          "internalType": "bool",
          "name": "",
          "type": "bool"
        }
      ],
      "stateMutability": "view",
      "type": "function"
    },
    {
      "inputs": [],
      "name": "symbol",
      "outputs": [
        {
          "internalType": "string",
          "name": "",
          "type": "string"
        }
      ],
      "stateMutability": "view",
      "type": "function"
    },
    {
      "inputs": [],
      "name": "tokenCount",
      "outputs": [
        {
          "internalType": "uint256",
          "name": "",
          "type": "uint256"
        }
      ],
      "stateMutability": "view",
      "type": "function"
    },
    {
      "inputs": [
        {
          "internalType": "uint256",
          "name": "tokenId",
          "type": "uint256"
        }
      ],
      "name": "tokenURI",
      "outputs": [
        {
          "internalType": "string",
          "name": "",
          "type": "string"
        }
      ],
      "stateMutability": "view",
      "type": "function"
    },
    {
      "inputs": [
        {
          "internalType": "address",
          "name": "from",
          "type": "address"
        },
        {
          "internalType": "address",
          "name": "to",
          "type": "address"
        },
        {
          "internalType": "uint256",
          "name": "tokenId",
          "type": "uint256"
        }
      ],
      "name": "transferFrom",
      "outputs": [],
      "stateMutability": "nonpayable",
      "type": "function"
    }
  ],
  "bytecode": "0x60806040523480156200001157600080fd5b50604080518082018252600881526711105c1c0813919560c21b6020808301918252835180850190945260048452630444150560e41b9084015281519192916200005e916000916200007d565b508051620000749060019060208401906200007d565b50505062000160565b8280546200008b9062000123565b90600052602060002090601f016020900481019282620000af5760008555620000fa565b82601f10620000ca57805160ff1916838001178555620000fa565b82800160010185558215620000fa579182015b82811115620000fa578251825591602001919060010190620000dd565b50620001089291506200010c565b5090565b5b808211156200010857600081556001016200010d565b600181811c908216806200013857607f821691505b602082108114156200015a57634e487b7160e01b600052602260045260246000fd5b50919050565b61141280620001706000396000f3fe608060405234801561001057600080fd5b50600436106101005760003560e01c80636352211e11610097578063a22cb46511610066578063a22cb46514610208578063b88d4fde1461021b578063c87b56dd1461022e578063e985e9c51461024157600080fd5b80636352211e146101d157806370a08231146101e457806395d89b41146101f75780639f181b5e146101ff57600080fd5b80631249c58b116100d35780631249c58b1461018257806323b872dd1461019857806342842e0e146101ab57806342966c68146101be57600080fd5b806301ffc9a71461010557806306fdde031461012d578063081812fc14610142578063095ea7b31461016d575b600080fd5b610118610113366004611110565b61027d565b60405190151581526020015b60405180910390f35b6101356102cf565b60405161012491906111f8565b610155610150366004611148565b610361565b6040516001600160a01b039091168152602001610124565b61018061017b3660046110e7565b610388565b005b61018a6104a3565b604051908152602001610124565b6101806101a6366004610f9d565b6104cc565b6101806101b9366004610f9d565b6104fe565b6101806101cc366004611148565b610519565b6101556101df366004611148565b61054a565b61018a6101f2366004610f51565b6105aa565b610135610630565b61018a60065481565b6101806102163660046110ad565b61063f565b610180610229366004610fd8565b61064e565b61013561023c366004611148565b610686565b61011861024f366004610f6b565b6001600160a01b03918216600090815260056020908152604080832093909416825291909152205460ff1690565b60006001600160e01b031982166380ac58cd60e01b14806102ae57506001600160e01b03198216635b5e139f60e01b145b806102c957506301ffc9a760e01b6001600160e01b03198316145b92915050565b6060600080546102de9061131a565b80601f016020809104026020016040519081016040528092919081815260200182805461030a9061131a565b80156103575780601f1061032c57610100808354040283529160200191610357565b820191906000526020600020905b81548152906001019060200180831161033a57829003601f168201915b5050505050905090565b600061036c826106fa565b506000908152600460205260409020546001600160a01b031690565b60006103938261054a565b9050806001600160a01b0316836001600160a01b031614156104065760405162461bcd60e51b815260206004820152602160248201527f4552433732313a20617070726f76616c20746f2063757272656e74206f776e656044820152603960f91b60648201526084015b60405180910390fd5b336001600160a01b03821614806104225750610422813361024f565b6104945760405162461bcd60e51b815260206004820152603e60248201527f4552433732313a20617070726f76652063616c6c6572206973206e6f7420746f60448201527f6b656e206f776e6572206e6f7220617070726f76656420666f7220616c6c000060648201526084016103fd565b61049e8383610759565b505050565b60068054600091826104b483611355565b91905055506104c5336006546107c7565b5060065490565b6104d7335b826107e1565b6104f35760405162461bcd60e51b81526004016103fd9061125d565b61049e838383610860565b61049e8383836040518060200160405280600081525061064e565b610522336104d1565b61053e5760405162461bcd60e51b81526004016103fd9061125d565b610547816109fc565b50565b6000818152600260205260408120546001600160a01b0316806102c95760405162461bcd60e51b8152602060048201526018602482015277115490cdcc8c4e881a5b9d985b1a59081d1bdad95b88125160421b60448201526064016103fd565b60006001600160a01b0382166106145760405162461bcd60e51b815260206004820152602960248201527f4552433732313a2061646472657373207a65726f206973206e6f7420612076616044820152683634b21037bbb732b960b91b60648201526084016103fd565b506001600160a01b031660009081526003602052604090205490565b6060600180546102de9061131a565b61064a338383610a97565b5050565b61065833836107e1565b6106745760405162461bcd60e51b81526004016103fd9061125d565b61068084848484610b66565b50505050565b6060610691826106fa565b60006106a860408051602081019091526000815290565b905060008151116106c857604051806020016040528060008152506106f3565b806106d284610b99565b6040516020016106e392919061118c565b6040516020818303038152906040525b9392505050565b6000818152600260205260409020546001600160a01b03166105475760405162461bcd60e51b8152602060048201526018602482015277115490cdcc8c4e881a5b9d985b1a59081d1bdad95b88125160421b60448201526064016103fd565b600081815260046020526040902080546001600160a01b0319166001600160a01b038416908117909155819061078e8261054a565b6001600160a01b03167f8c5be1e5ebec7d5bd14f71427d1e84f3dd0314c0f7b2291e5b200ac8c7c3b92560405160405180910390a45050565b61064a828260405180602001604052806000815250610cb3565b6000806107ed8361054a565b9050806001600160a01b0316846001600160a01b0316148061083457506001600160a01b0380821660009081526005602090815260408083209388168352929052205460ff165b806108585750836001600160a01b031661084d84610361565b6001600160a01b0316145b949350505050565b826001600160a01b03166108738261054a565b6001600160a01b0316146108d75760405162461bcd60e51b815260206004820152602560248201527f4552433732313a207472616e736665722066726f6d20696e636f72726563742060448201526437bbb732b960d91b60648201526084016103fd565b6001600160a01b0382166109395760405162461bcd60e51b8152602060048201526024808201527f4552433732313a207472616e7366657220746f20746865207a65726f206164646044820152637265737360e01b60648201526084016103fd565b610944600082610759565b6001600160a01b038316600090815260036020526040812080546001929061096d9084906112d7565b90915550506001600160a01b038216600090815260036020526040812080546001929061099b9084906112ab565b909155505060008181526002602052604080822080546001600160a01b0319166001600160a01b0386811691821790925591518493918716917fddf252ad1be2c89b69c2b068fc378daa952ba7f163c4a11628f55a4df523b3ef91a4505050565b6000610a078261054a565b9050610a14600083610759565b6001600160a01b0381166000908152600360205260408120805460019290610a3d9084906112d7565b909155505060008281526002602052604080822080546001600160a01b0319169055518391906001600160a01b038416907fddf252ad1be2c89b69c2b068fc378daa952ba7f163c4a11628f55a4df523b3ef908390a45050565b816001600160a01b0316836001600160a01b03161415610af95760405162461bcd60e51b815260206004820152601960248201527f4552433732313a20617070726f766520746f2063616c6c65720000000000000060448201526064016103fd565b6001600160a01b03838116600081815260056020908152604080832094871680845294825291829020805460ff191686151590811790915591519182527f17307eab39ab6107e8899845ad3d59bd9653f200f220920489ca2b5937696c31910160405180910390a3505050565b610b71848484610860565b610b7d84848484610ce6565b6106805760405162461bcd60e51b81526004016103fd9061120b565b606081610bbd5750506040805180820190915260018152600360fc1b602082015290565b8160005b8115610be75780610bd181611355565b9150610be09050600a836112c3565b9150610bc1565b60008167ffffffffffffffff811115610c1057634e487b7160e01b600052604160045260246000fd5b6040519080825280601f01601f191660200182016040528015610c3a576020820181803683370190505b5090505b841561085857610c4f6001836112d7565b9150610c5c600a86611370565b610c679060306112ab565b60f81b818381518110610c8a57634e487b7160e01b600052603260045260246000fd5b60200101906001600160f81b031916908160001a905350610cac600a866112c3565b9450610c3e565b610cbd8383610df3565b610cca6000848484610ce6565b61049e5760405162461bcd60e51b81526004016103fd9061120b565b60006001600160a01b0384163b15610de857604051630a85bd0160e11b81526001600160a01b0385169063150b7a0290610d2a9033908990889088906004016111bb565b602060405180830381600087803b158015610d4457600080fd5b505af1925050508015610d74575060408051601f3d908101601f19168201909252610d719181019061112c565b60015b610dce573d808015610da2576040519150601f19603f3d011682016040523d82523d6000602084013e610da7565b606091505b508051610dc65760405162461bcd60e51b81526004016103fd9061120b565b805181602001fd5b6001600160e01b031916630a85bd0160e11b149050610858565b506001949350505050565b6001600160a01b038216610e495760405162461bcd60e51b815260206004820181905260248201527f4552433732313a206d696e7420746f20746865207a65726f206164647265737360448201526064016103fd565b6000818152600260205260409020546001600160a01b031615610eae5760405162461bcd60e51b815260206004820152601c60248201527f4552433732313a20746f6b656e20616c7265616479206d696e7465640000000060448201526064016103fd565b6001600160a01b0382166000908152600360205260408120805460019290610ed79084906112ab565b909155505060008181526002602052604080822080546001600160a01b0319166001600160a01b03861690811790915590518392907fddf252ad1be2c89b69c2b068fc378daa952ba7f163c4a11628f55a4df523b3ef908290a45050565b80356001600160a01b0381168114610f4c57600080fd5b919050565b600060208284031215610f62578081fd5b6106f382610f35565b60008060408385031215610f7d578081fd5b610f8683610f35565b9150610f9460208401610f35565b90509250929050565b600080600060608486031215610fb1578081fd5b610fba84610f35565b9250610fc860208501610f35565b9150604084013590509250925092565b60008060008060808587031215610fed578081fd5b610ff685610f35565b935061100460208601610f35565b925060408501359150606085013567ffffffffffffffff80821115611027578283fd5b818701915087601f83011261103a578283fd5b81358181111561104c5761104c6113b0565b604051601f8201601f19908116603f01168101908382118183101715611074576110746113b0565b816040528281528a602084870101111561108c578586fd5b82602086016020830137918201602001949094529598949750929550505050565b600080604083850312156110bf578182fd5b6110c883610f35565b9150602083013580151581146110dc578182fd5b809150509250929050565b600080604083850312156110f9578182fd5b61110283610f35565b946020939093013593505050565b600060208284031215611121578081fd5b81356106f3816113c6565b60006020828403121561113d578081fd5b81516106f3816113c6565b600060208284031215611159578081fd5b5035919050565b600081518084526111788160208601602086016112ee565b601f01601f19169290920160200192915050565b6000835161119e8184602088016112ee565b8351908301906111b28183602088016112ee565b01949350505050565b6001600160a01b03858116825284166020820152604081018390526080606082018190526000906111ee90830184611160565b9695505050505050565b6020815260006106f36020830184611160565b60208082526032908201527f4552433732313a207472616e7366657220746f206e6f6e20455243373231526560408201527131b2b4bb32b91034b6b83632b6b2b73a32b960711b606082015260800190565b6020808252602e908201527f4552433732313a2063616c6c6572206973206e6f7420746f6b656e206f776e6560408201526d1c881b9bdc88185c1c1c9bdd995960921b606082015260800190565b600082198211156112be576112be611384565b500190565b6000826112d2576112d261139a565b500490565b6000828210156112e9576112e9611384565b500390565b60005b838110156113095781810151838201526020016112f1565b838111156106805750506000910152565b600181811c9082168061132e57607f821691505b6020821081141561134f57634e487b7160e01b600052602260045260246000fd5b50919050565b600060001982141561136957611369611384565b5060010190565b60008261137f5761137f61139a565b500690565b634e487b7160e01b600052601160045260246000fd5b634e487b7160e01b600052601260045260246000fd5b634e487b7160e01b600052604160045260246000fd5b6001600160e01b03198116811461054757600080fdfea2646970667358221220821b9d23ad61f67ed5a9ce3a422497228cd9ee68ff7d63b4d4ff82069a0e5bd664736f6c63430008040033",
  "linkReferences": {},
  "deployedLinkReferences": {}
}